:100000000C942A000C9434000C9434000C943400AA
:100010000C9434000C9434000C9434000C94340090
:100020000C9434000C9434000C9434000C94340080
:100030000C9434000C9434000C9434000C94340070
:100040000C9434000C9434000C9434000C94340060
:100050000C94340011241FBECFE5D4E0DEBFCDBF29
:100060000E9477010C9427020C940000683008F07D
:1000700070C0843008F06DC0813009F1813030F0FB
:100080008230B1F1833009F064C04BC0413059F483
:100090002AB381E090E002C0880F991F6A95E2F7C9
:1000A000282B2ABB08952AB381E090E002C0880F74
:1000B000991F6A95E2F7809582238ABB08954130A3
:1000C00059F427B381E090E002C0880F991F6A9528
:1000D000E2F7282B27BB089527B381E090E002C008
:1000E000880F991F6A95E2F78095822387BB089550
:1000F000413059F424B381E090E002C0880F991F89
:100100006A95E2F7282B24BB089524B381E090E0A0
:1001100002C0880F991F6A95E2F78095822384BBFD
:100120000895413059F421B381E090E002C0880F76
:10013000991F6A95E2F7282B21BB089521B381E02E
:1001400090E002C0880F991F6A95E2F7809582239C
:1001500081BB0895683008F070C0843008F06DC02D
:10016000813009F1813030F08230B1F1833009F013
:1001700064C04BC0413059F42BB381E090E002C021
:10018000880F991F6A95E2F7282B2BBB08952BB394
:1001900081E090E002C0880F991F6A95E2F7809590
:1001A00082238BBB0895413059F428B381E090E05D
:1001B00002C0880F991F6A95E2F7282B28BB089583
:1001C00028B381E090E002C0880F991F6A95E2F79A
:1001D0008095822388BB0895413059F425B381E08E
:1001E00090E002C0880F991F6A95E2F7282B25BB83
:1001F000089525B381E090E002C0880F991F6A95A9
:10020000E2F78095822385BB0895413059F422B3EB
:1002100081E090E002C0880F991F6A95E2F7282BD1
:1002200022BB089522B381E090E002C0880F991F9D
:100230006A95E2F78095822382BB08956830D0F4F6
:100240008430C0F4813049F0813028F0823039F0B8
:10025000833081F406C089B305C086B303C083B37D
:1002600001C080B390E002C0959587956A95E2F74A
:100270008170089580E00895843080F4813049F0E1
:10028000813028F0823039F0833041F406C06ABBF7
:10029000089567BB089564BB089561BB08958430D9
:1002A00080F4813049F0813028F0823039F0833099
:1002B00041F406C06BBB089568BB089565BB089503
:1002C00062BB0895843088F4813049F0813028F091
:1002D000823039F0833049F406C089B3089586B37B
:1002E000089583B3089580B3089580E008951F931F
:1002F00060E875E280E090E00E94BF0181E061E08B
:1003000040E00E94360081E062E040E00E9436005A
:1003100081E063E040E00E94360082E061E041E07D
:100320000E9436001AE0B19B0CC0812F8A95F1F72C
:10033000B19BF9CF82E061E041E00E94AA0081E038
:100340001BC0B29B0CC0812F8A95F1F7B29BEBCFFB
:1003500082E061E041E00E94AA0082E00DC0B39B10
:10036000E2CF812F8A95F1F7B39BDDCF82E061E088
:1003700041E00E94AA0080E00E94D901D4CF9B01F5
:10038000AC0182E08BB988E18AB986E880BD83E060
:10039000220F331F441F551F8A95D1F760E472E482
:1003A0008FE090E00E9405022150304030BD29B915
:1003B00008955D9BFECF8CB908955F9BFECF8CB1F5
:1003C000089520E004C05D9BFECFECB92F5FFC01D7
:1003D000E20FF11DE081EE23B1F70895DC015F9B90
:1003E000FECF8CB18C9390E008C09F5F5F9BFECFE7
:1003F0008CB1FD01E90FF11D8083FD01E90FF11DB5
:100400008081833291F710820895A1E21A2EAA1BEF
:10041000BB1BFD010DC0AA1FBB1FEE1FFF1FA217B4
:10042000B307E407F50720F0A21BB30BE40BF50BB1
:10043000661F771F881F991F1A9469F7609570953A
:10044000809590959B01AC01BD01CF010895F89472
:02045000FFCFDC
:00000001FF
